{
  "_format": "hh-sol-artifact-1",
  "contractName": "BlogChain",
  "sourceName": "contracts/blogchain.sol",
  "abi": [
    {
      "anonymous": false,
      "inputs": [
        {
          "indexed": false,
          "internalType": "address",
          "name": "author",
          "type": "address"
        },
        {
          "indexed": false,
          "internalType": "string",
          "name": "content",
          "type": "string"
        },
        {
          "indexed": false,
          "internalType": "uint256",
          "name": "timestamp",
          "type": "uint256"
        },
        {
          "indexed": false,
          "internalType": "uint256",
          "name": "id",
          "type": "uint256"
        }
      ],
      "name": "TweetCreated",
      "type": "event"
    },
    {
      "inputs": [],
      "name": "emptyTweets",
      "outputs": [],
      "stateMutability": "nonpayable",
      "type": "function"
    },
    {
      "inputs": [],
      "name": "nextTweetId",
      "outputs": [
        {
          "internalType": "uint256",
          "name": "",
          "type": "uint256"
        }
      ],
      "stateMutability": "view",
      "type": "function"
    },
    {
      "inputs": [],
      "name": "readTweets",
      "outputs": [
        {
          "components": [
            {
              "internalType": "address",
              "name": "author",
              "type": "address"
            },
            {
              "internalType": "string",
              "name": "content",
              "type": "string"
            },
            {
              "internalType": "uint256",
              "name": "timestamp",
              "type": "uint256"
            },
            {
              "internalType": "uint256",
              "name": "id",
              "type": "uint256"
            }
          ],
          "internalType": "struct BlogChain.Tweet[]",
          "name": "",
          "type": "tuple[]"
        }
      ],
      "stateMutability": "view",
      "type": "function"
    },
    {
      "inputs": [
        {
          "internalType": "uint256",
          "name": "",
          "type": "uint256"
        }
      ],
      "name": "tweets",
      "outputs": [
        {
          "internalType": "address",
          "name": "author",
          "type": "address"
        },
        {
          "internalType": "string",
          "name": "content",
          "type": "string"
        },
        {
          "internalType": "uint256",
          "name": "timestamp",
          "type": "uint256"
        },
        {
          "internalType": "uint256",
          "name": "id",
          "type": "uint256"
        }
      ],
      "stateMutability": "view",
      "type": "function"
    },
    {
      "inputs": [
        {
          "internalType": "string",
          "name": "_content",
          "type": "string"
        }
      ],
      "name": "writeTweet",
      "outputs": [],
      "stateMutability": "nonpayable",
      "type": "function"
    }
  ],
  "bytecode": "0x608060405234801561001057600080fd5b50610df9806100206000396000f3fe608060405234801561001057600080fd5b50600436106100575760003560e01c806356d5f82e1461005c5780638076e02b1461006657806384f3cac014610084578063e8d857b0146100a0578063f3c6a42b146100d3575b600080fd5b6100646100f1565b005b61006e610100565b60405161007b91906105b9565b60405180910390f35b61009e60048036038101906100999190610643565b610106565b005b6100ba60048036038101906100b591906106bc565b61027e565b6040516100ca94939291906107ba565b60405180910390f35b6100db610366565b6040516100e89190610993565b60405180910390f35b6000806100fe91906104c1565b565b60015481565b600060405180608001604052803373ffffffffffffffffffffffffffffffffffffffff16815260200184848080601f016020809104026020016040519081016040528093929190818152602001838380828437600081840152601f19601f820116905080830192505050505050508152602001428152602001600154815250908060018154018082558091505060019003906000526020600020906004020160009091909190915060008201518160000160006101000a81548173ffffffffffffffffffffffffffffffffffffffff021916908373ffffffffffffffffffffffffffffffffffffffff160217905550602082015181600101908161020a9190610bf0565b50604082015181600201556060820151816003015550507fa9046f6362696147f01168579e231a446651190ffd46672b55bd494e66b0c4c13383834260015460405161025a959493929190610cfe565b60405180910390a16001600081548092919061027590610d7b565b91905055505050565b6000818154811061028e57600080fd5b90600052602060002090600402016000915090508060000160009054906101000a900473ffffffffffffffffffffffffffffffffffffffff16908060010180546102d790610a13565b80601f016020809104026020016040519081016040528092919081815260200182805461030390610a13565b80156103505780601f1061032557610100808354040283529160200191610350565b820191906000526020600020905b81548152906001019060200180831161033357829003601f168201915b5050505050908060020154908060030154905084565b60606000805480602002602001604051908101604052809291908181526020016000905b828210156104b857838290600052602060002090600402016040518060800160405290816000820160009054906101000a900473ffffffffffffffffffffffffffffffffffffffff1673ffffffffffffffffffffffffffffffffffffffff1673ffffffffffffffffffffffffffffffffffffffff16815260200160018201805461041390610a13565b80601f016020809104026020016040519081016040528092919081815260200182805461043f90610a13565b801561048c5780601f106104615761010080835404028352916020019161048c565b820191906000526020600020905b81548152906001019060200180831161046f57829003601f168201915b50505050508152602001600282015481526020016003820154815250508152602001906001019061038a565b50505050905090565b50805460008255600402906000526020600020908101906104e291906104e5565b50565b5b8082111561053f57600080820160006101000a81549073ffffffffffffffffffffffffffffffffffffffff02191690556001820160006105269190610543565b60028201600090556003820160009055506004016104e6565b5090565b50805461054f90610a13565b6000825580601f106105615750610580565b601f01602090049060005260206000209081019061057f9190610583565b5b50565b5b8082111561059c576000816000905550600101610584565b5090565b6000819050919050565b6105b3816105a0565b82525050565b60006020820190506105ce60008301846105aa565b92915050565b600080fd5b600080fd5b600080fd5b600080fd5b600080fd5b60008083601f840112610603576106026105de565b5b8235905067ffffffffffffffff8111156106205761061f6105e3565b5b60208301915083600182028301111561063c5761063b6105e8565b5b9250929050565b6000806020838503121561065a576106596105d4565b5b600083013567ffffffffffffffff811115610678576106776105d9565b5b610684858286016105ed565b92509250509250929050565b610699816105a0565b81146106a457600080fd5b50565b6000813590506106b681610690565b92915050565b6000602082840312156106d2576106d16105d4565b5b60006106e0848285016106a7565b91505092915050565b600073ffffffffffffffffffffffffffffffffffffffff82169050919050565b6000610714826106e9565b9050919050565b61072481610709565b82525050565b600081519050919050565b600082825260208201905092915050565b60005b83811015610764578082015181840152602081019050610749565b60008484015250505050565b6000601f19601f8301169050919050565b600061078c8261072a565b6107968185610735565b93506107a6818560208601610746565b6107af81610770565b840191505092915050565b60006080820190506107cf600083018761071b565b81810360208301526107e18186610781565b90506107f060408301856105aa565b6107fd60608301846105aa565b95945050505050565b600081519050919050565b600082825260208201905092915050565b6000819050602082019050919050565b61083b81610709565b82525050565b600082825260208201905092915050565b600061085d8261072a565b6108678185610841565b9350610877818560208601610746565b61088081610770565b840191505092915050565b610894816105a0565b82525050565b60006080830160008301516108b26000860182610832565b50602083015184820360208601526108ca8282610852565b91505060408301516108df604086018261088b565b5060608301516108f2606086018261088b565b508091505092915050565b6000610909838361089a565b905092915050565b6000602082019050919050565b600061092982610806565b6109338185610811565b93508360208202850161094585610822565b8060005b85811015610981578484038952815161096285826108fd565b945061096d83610911565b925060208a01995050600181019050610949565b50829750879550505050505092915050565b600060208201905081810360008301526109ad818461091e565b905092915050565b7f4e487b7100000000000000000000000000000000000000000000000000000000600052604160045260246000fd5b7f4e487b7100000000000000000000000000000000000000000000000000000000600052602260045260246000fd5b60006002820490506001821680610a2b57607f821691505b602082108103610a3e57610a3d6109e4565b5b50919050565b60008190508160005260206000209050919050565b60006020601f8301049050919050565b600082821b905092915050565b600060088302610aa67fffffffffffffffffffffffffffffffffffffffffffffffffffffffffffffffff82610a69565b610ab08683610a69565b95508019841693508086168417925050509392505050565b6000819050919050565b6000610aed610ae8610ae3846105a0565b610ac8565b6105a0565b9050919050565b6000819050919050565b610b0783610ad2565b610b1b610b1382610af4565b848454610a76565b825550505050565b600090565b610b30610b23565b610b3b818484610afe565b505050565b5b81811015610b5f57610b54600082610b28565b600181019050610b41565b5050565b601f821115610ba457610b7581610a44565b610b7e84610a59565b81016020851015610b8d578190505b610ba1610b9985610a59565b830182610b40565b50505b505050565b600082821c905092915050565b6000610bc760001984600802610ba9565b1980831691505092915050565b6000610be08383610bb6565b9150826002028217905092915050565b610bf98261072a565b67ffffffffffffffff811115610c1257610c116109b5565b5b610c1c8254610a13565b610c27828285610b63565b600060209050601f831160018114610c5a5760008415610c48578287015190505b610c528582610bd4565b865550610cba565b601f198416610c6886610a44565b60005b82811015610c9057848901518255600182019150602085019450602081019050610c6b565b86831015610cad5784890151610ca9601f891682610bb6565b8355505b6001600288020188555050505b505050505050565b82818337600083830152505050565b6000610cdd8385610735565b9350610cea838584610cc2565b610cf383610770565b840190509392505050565b6000608082019050610d13600083018861071b565b8181036020830152610d26818688610cd1565b9050610d3560408301856105aa565b610d4260608301846105aa565b9695505050505050565b7f4e487b7100000000000000000000000000000000000000000000000000000000600052601160045260246000fd5b6000610d86826105a0565b91507fffffffffffffffffffffffffffffffffffffffffffffffffffffffffffffffff8203610db857610db7610d4c565b5b60018201905091905056fea2646970667358221220ca92040f11f8cd2037fd5edca828cd9bb779cdae6c7504684961da558088e33464736f6c63430008130033",
  "linkReferences": {},
  "deployedLinkReferences": {}
}