{
  "_format": "hh-sol-artifact-1",
  "contractName": "BlogChain",
  "sourceName": "contracts/blogchain.sol",
  "abi": [
    {
      "inputs": [],
      "stateMutability": "nonpayable",
      "type": "constructor"
    },
    {
      "anonymous": false,
      "inputs": [
        {
          "indexed": false,
          "internalType": "address",
          "name": "account",
          "type": "address"
        }
      ],
      "name": "Paused",
      "type": "event"
    },
    {
      "anonymous": false,
      "inputs": [
        {
          "indexed": true,
          "internalType": "bytes32",
          "name": "role",
          "type": "bytes32"
        },
        {
          "indexed": true,
          "internalType": "bytes32",
          "name": "previousAdminRole",
          "type": "bytes32"
        },
        {
          "indexed": true,
          "internalType": "bytes32",
          "name": "newAdminRole",
          "type": "bytes32"
        }
      ],
      "name": "RoleAdminChanged",
      "type": "event"
    },
    {
      "anonymous": false,
      "inputs": [
        {
          "indexed": true,
          "internalType": "bytes32",
          "name": "role",
          "type": "bytes32"
        },
        {
          "indexed": true,
          "internalType": "address",
          "name": "account",
          "type": "address"
        },
        {
          "indexed": true,
          "internalType": "address",
          "name": "sender",
          "type": "address"
        }
      ],
      "name": "RoleGranted",
      "type": "event"
    },
    {
      "anonymous": false,
      "inputs": [
        {
          "indexed": true,
          "internalType": "bytes32",
          "name": "role",
          "type": "bytes32"
        },
        {
          "indexed": true,
          "internalType": "address",
          "name": "account",
          "type": "address"
        },
        {
          "indexed": true,
          "internalType": "address",
          "name": "sender",
          "type": "address"
        }
      ],
      "name": "RoleRevoked",
      "type": "event"
    },
    {
      "anonymous": false,
      "inputs": [
        {
          "indexed": true,
          "internalType": "address",
          "name": "author",
          "type": "address"
        },
        {
          "indexed": true,
          "internalType": "bytes32",
          "name": "hashId",
          "type": "bytes32"
        },
        {
          "indexed": false,
          "internalType": "string",
          "name": "content",
          "type": "string"
        }
      ],
      "name": "TweetCreated",
      "type": "event"
    },
    {
      "anonymous": false,
      "inputs": [
        {
          "indexed": false,
          "internalType": "uint256",
          "name": "id",
          "type": "uint256"
        },
        {
          "indexed": false,
          "internalType": "bool",
          "name": "isDeleted",
          "type": "bool"
        }
      ],
      "name": "TweetDeleted",
      "type": "event"
    },
    {
      "anonymous": false,
      "inputs": [
        {
          "indexed": false,
          "internalType": "address",
          "name": "account",
          "type": "address"
        }
      ],
      "name": "Unpaused",
      "type": "event"
    },
    {
      "inputs": [],
      "name": "DEFAULT_ADMIN_ROLE",
      "outputs": [
        {
          "internalType": "bytes32",
          "name": "",
          "type": "bytes32"
        }
      ],
      "stateMutability": "view",
      "type": "function"
    },
    {
      "inputs": [],
      "name": "MODERATOR_ROLE",
      "outputs": [
        {
          "internalType": "bytes32",
          "name": "",
          "type": "bytes32"
        }
      ],
      "stateMutability": "view",
      "type": "function"
    },
    {
      "inputs": [],
      "name": "PAUSER_ROLE",
      "outputs": [
        {
          "internalType": "bytes32",
          "name": "",
          "type": "bytes32"
        }
      ],
      "stateMutability": "view",
      "type": "function"
    },
    {
      "inputs": [
        {
          "internalType": "bytes32",
          "name": "",
          "type": "bytes32"
        }
      ],
      "name": "Tweets",
      "outputs": [
        {
          "internalType": "bytes32",
          "name": "id",
          "type": "bytes32"
        },
        {
          "internalType": "uint256",
          "name": "timestamp",
          "type": "uint256"
        },
        {
          "internalType": "address",
          "name": "author",
          "type": "address"
        },
        {
          "internalType": "string",
          "name": "content",
          "type": "string"
        }
      ],
      "stateMutability": "view",
      "type": "function"
    },
    {
      "inputs": [
        {
          "internalType": "address",
          "name": "",
          "type": "address"
        }
      ],
      "name": "Users",
      "outputs": [
        {
          "internalType": "string",
          "name": "name",
          "type": "string"
        },
        {
          "internalType": "string",
          "name": "description",
          "type": "string"
        },
        {
          "internalType": "string",
          "name": "profileImg",
          "type": "string"
        }
      ],
      "stateMutability": "view",
      "type": "function"
    },
    {
      "inputs": [
        {
          "internalType": "bytes32",
          "name": "id",
          "type": "bytes32"
        }
      ],
      "name": "deleteTweet",
      "outputs": [],
      "stateMutability": "nonpayable",
      "type": "function"
    },
    {
      "inputs": [
        {
          "internalType": "bytes32",
          "name": "role",
          "type": "bytes32"
        }
      ],
      "name": "getRoleAdmin",
      "outputs": [
        {
          "internalType": "bytes32",
          "name": "",
          "type": "bytes32"
        }
      ],
      "stateMutability": "view",
      "type": "function"
    },
    {
      "inputs": [
        {
          "internalType": "bytes32",
          "name": "hashId",
          "type": "bytes32"
        }
      ],
      "name": "getTweet",
      "outputs": [
        {
          "components": [
            {
              "internalType": "bytes32",
              "name": "id",
              "type": "bytes32"
            },
            {
              "internalType": "uint256",
              "name": "timestamp",
              "type": "uint256"
            },
            {
              "internalType": "address",
              "name": "author",
              "type": "address"
            },
            {
              "internalType": "string",
              "name": "content",
              "type": "string"
            }
          ],
          "internalType": "struct BlogChain.Tweet",
          "name": "",
          "type": "tuple"
        }
      ],
      "stateMutability": "view",
      "type": "function"
    },
    {
      "inputs": [
        {
          "internalType": "bytes32",
          "name": "role",
          "type": "bytes32"
        },
        {
          "internalType": "address",
          "name": "account",
          "type": "address"
        }
      ],
      "name": "grantRole",
      "outputs": [],
      "stateMutability": "nonpayable",
      "type": "function"
    },
    {
      "inputs": [
        {
          "internalType": "bytes32",
          "name": "role",
          "type": "bytes32"
        },
        {
          "internalType": "address",
          "name": "account",
          "type": "address"
        }
      ],
      "name": "hasRole",
      "outputs": [
        {
          "internalType": "bool",
          "name": "",
          "type": "bool"
        }
      ],
      "stateMutability": "view",
      "type": "function"
    },
    {
      "inputs": [
        {
          "internalType": "bytes32",
          "name": "id",
          "type": "bytes32"
        }
      ],
      "name": "moderateTweet",
      "outputs": [],
      "stateMutability": "nonpayable",
      "type": "function"
    },
    {
      "inputs": [],
      "name": "nextTweetId",
      "outputs": [
        {
          "internalType": "uint256",
          "name": "",
          "type": "uint256"
        }
      ],
      "stateMutability": "view",
      "type": "function"
    },
    {
      "inputs": [],
      "name": "pause",
      "outputs": [],
      "stateMutability": "nonpayable",
      "type": "function"
    },
    {
      "inputs": [],
      "name": "paused",
      "outputs": [
        {
          "internalType": "bool",
          "name": "",
          "type": "bool"
        }
      ],
      "stateMutability": "view",
      "type": "function"
    },
    {
      "inputs": [
        {
          "internalType": "bytes32",
          "name": "role",
          "type": "bytes32"
        },
        {
          "internalType": "address",
          "name": "account",
          "type": "address"
        }
      ],
      "name": "renounceRole",
      "outputs": [],
      "stateMutability": "nonpayable",
      "type": "function"
    },
    {
      "inputs": [
        {
          "internalType": "bytes32",
          "name": "role",
          "type": "bytes32"
        },
        {
          "internalType": "address",
          "name": "account",
          "type": "address"
        }
      ],
      "name": "revokeRole",
      "outputs": [],
      "stateMutability": "nonpayable",
      "type": "function"
    },
    {
      "inputs": [
        {
          "internalType": "bytes4",
          "name": "interfaceId",
          "type": "bytes4"
        }
      ],
      "name": "supportsInterface",
      "outputs": [
        {
          "internalType": "bool",
          "name": "",
          "type": "bool"
        }
      ],
      "stateMutability": "view",
      "type": "function"
    },
    {
      "inputs": [],
      "name": "unpause",
      "outputs": [],
      "stateMutability": "nonpayable",
      "type": "function"
    },
    {
      "inputs": [
        {
          "internalType": "string",
          "name": "name",
          "type": "string"
        },
        {
          "internalType": "string",
          "name": "description",
          "type": "string"
        },
        {
          "internalType": "string",
          "name": "profileImg",
          "type": "string"
        }
      ],
      "name": "updateUser",
      "outputs": [],
      "stateMutability": "nonpayable",
      "type": "function"
    },
    {
      "inputs": [
        {
          "internalType": "string",
          "name": "content",
          "type": "string"
        }
      ],
      "name": "writeTweet",
      "outputs": [],
      "stateMutability": "nonpayable",
      "type": "function"
    }
  ],
  "bytecode": "0x60806040523480156200001157600080fd5b5060008060006101000a81548160ff021916908315150217905550620000416000801b336200008160201b60201c565b620000737f65d7a28e3265b37a6474929f336521b332c1681b933f6cb9f3376673440d862a336200008160201b60201c565b6000600281905550620001e5565b6200009382826200017260201b60201c565b6200016e57600180600084815260200190815260200160002060000160008373ffffffffffffffffffffffffffffffffffffffff1673ffffffffffffffffffffffffffffffffffffffff16815260200190815260200160002060006101000a81548160ff02191690831515021790555062000113620001dd60201b60201c565b73ffffffffffffffffffffffffffffffffffffffff168173ffffffffffffffffffffffffffffffffffffffff16837f2f8788117e7eff1d82e926ec794901d17c78024a50270940304540a733656f0d60405160405180910390a45b5050565b60006001600084815260200190815260200160002060000160008373ffffffffffffffffffffffffffffffffffffffff1673ffffffffffffffffffffffffffffffffffffffff16815260200190815260200160002060009054906101000a900460ff16905092915050565b600033905090565b61231480620001f56000396000f3fe608060405234801561001057600080fd5b506004361061012c5760003560e01c80638076e02b116100ad578063a217fddf11610071578063a217fddf14610334578063d547741f14610352578063e453a63b1461036e578063e63ab1e91461038a578063f1614cd3146103a85761012c565b80638076e02b1461028e5780638456cb59146102ac57806384f3cac0146102b657806391d14854146102d257806399b956a0146103025761012c565b80633f4ba83a116100f45780633f4ba83a146101f95780635c975abb146102035780635c9c75361461022157806360903be614610254578063797669c9146102705761012c565b806301ffc9a7146101315780630543182014610161578063248a9ca3146101915780632f2ff15d146101c157806336568abe146101dd575b600080fd5b61014b6004803603810190610146919061132e565b6103c4565b6040516101589190611376565b60405180910390f35b61017b600480360381019061017691906113c7565b61043e565b6040516101889190611550565b60405180910390f35b6101ab60048036038101906101a691906113c7565b610567565b6040516101b89190611581565b60405180910390f35b6101db60048036038101906101d691906115c8565b610587565b005b6101f760048036038101906101f291906115c8565b6105a8565b005b61020161062b565b005b61020b610660565b6040516102189190611376565b60405180910390f35b61023b600480360381019061023691906113c7565b610676565b60405161024b9493929190611670565b60405180910390f35b61026e600480360381019061026991906117f1565b61074e565b005b6102786107cd565b6040516102859190611581565b60405180910390f35b6102966107f1565b6040516102a39190611898565b60405180910390f35b6102b46107f7565b005b6102d060048036038101906102cb9190611913565b61082c565b005b6102ec60048036038101906102e791906115c8565b61094a565b6040516102f99190611376565b60405180910390f35b61031c60048036038101906103179190611960565b6109b5565b60405161032b9392919061198d565b60405180910390f35b61033c610b77565b6040516103499190611581565b60405180910390f35b61036c600480360381019061036791906115c8565b610b7e565b005b610388600480360381019061038391906113c7565b610b9f565b005b610392610bcd565b60405161039f9190611581565b60405180910390f35b6103c260048036038101906103bd91906113c7565b610bf1565b005b60007f7965db0b000000000000000000000000000000000000000000000000000000007bffffffffffffffffffffffffffffffffffffffffffffffffffffffff1916827bffffffffffffffffffffffffffffffffffffffffffffffffffffffff19161480610437575061043682610bf4565b5b9050919050565b610446611281565b6003600083815260200190815260200160002060405180608001604052908160008201548152602001600182015481526020016002820160009054906101000a900473ffffffffffffffffffffffffffffffffffffffff1673ffffffffffffffffffffffffffffffffffffffff1673ffffffffffffffffffffffffffffffffffffffff1681526020016003820180546104de90611a08565b80601f016020809104026020016040519081016040528092919081815260200182805461050a90611a08565b80156105575780601f1061052c57610100808354040283529160200191610557565b820191906000526020600020905b81548152906001019060200180831161053a57829003601f168201915b5050505050815250509050919050565b600060016000838152602001908152602001600020600101549050919050565b61059082610567565b61059981610c5e565b6105a38383610c72565b505050565b6105b0610d52565b73ffffffffffffffffffffffffffffffffffffffff168173ffffffffffffffffffffffffffffffffffffffff161461061d576040517f08c379a000000000000000000000000000000000000000000000000000000000815260040161061490611aab565b60405180910390fd5b6106278282610d5a565b5050565b7f65d7a28e3265b37a6474929f336521b332c1681b933f6cb9f3376673440d862a61065581610c5e565b61065d610e3c565b50565b60008060009054906101000a900460ff16905090565b60036020528060005260406000206000915090508060000154908060010154908060020160009054906101000a900473ffffffffffffffffffffffffffffffffffffffff16908060030180546106cb90611a08565b80601f01602080910402602001604051908101604052809291908181526020018280546106f790611a08565b80156107445780601f1061071957610100808354040283529160200191610744565b820191906000526020600020905b81548152906001019060200180831161072757829003601f168201915b5050505050905084565b6000600460003373ffffffffffffffffffffffffffffffffffffffff1673ffffffffffffffffffffffffffffffffffffffff1681526020019081526020016000209050838160000190816107a29190611c77565b50828160010190816107b49190611c77565b50818160020190816107c69190611c77565b5050505050565b7f71f3d55856e4058ed06ee057d79ada615f65cdf5f9ee88181b914225088f834f81565b60025481565b7f65d7a28e3265b37a6474929f336521b332c1681b933f6cb9f3376673440d862a61082181610c5e565b610829610e9e565b50565b600033600254604051602001610843929190611db2565b6040516020818303038152906040528051906020012090506000600360008381526020019081526020016000209050818160000181905550428160010181905550338160020160006101000a81548173ffffffffffffffffffffffffffffffffffffffff021916908373ffffffffffffffffffffffffffffffffffffffff16021790555083838260030191826108da929190611de9565b50813373ffffffffffffffffffffffffffffffffffffffff167f27714f8db5b53c28221692dfc31de673bd4d1f421fb914f3d17877d018b18b968686604051610924929190611ee6565b60405180910390a36002600081548092919061093f90611f39565b919050555050505050565b60006001600084815260200190815260200160002060000160008373ffffffffffffffffffffffffffffffffffffffff1673ffffffffffffffffffffffffffffffffffffffff16815260200190815260200160002060009054906101000a900460ff16905092915050565b60046020528060005260406000206000915090508060000180546109d890611a08565b80601f0160208091040260200160405190810160405280929190818152602001828054610a0490611a08565b8015610a515780601f10610a2657610100808354040283529160200191610a51565b820191906000526020600020905b815481529060010190602001808311610a3457829003601f168201915b505050505090806001018054610a6690611a08565b80601f0160208091040260200160405190810160405280929190818152602001828054610a9290611a08565b8015610adf5780601f10610ab457610100808354040283529160200191610adf565b820191906000526020600020905b815481529060010190602001808311610ac257829003601f168201915b505050505090806002018054610af490611a08565b80601f0160208091040260200160405190810160405280929190818152602001828054610b2090611a08565b8015610b6d5780601f10610b4257610100808354040283529160200191610b6d565b820191906000526020600020905b815481529060010190602001808311610b5057829003601f168201915b5050505050905083565b6000801b81565b610b8782610567565b610b9081610c5e565b610b9a8383610d5a565b505050565b7f71f3d55856e4058ed06ee057d79ada615f65cdf5f9ee88181b914225088f834f610bc981610c5e565b5050565b7f65d7a28e3265b37a6474929f336521b332c1681b933f6cb9f3376673440d862a81565b50565b60007f01ffc9a7000000000000000000000000000000000000000000000000000000007bffffffffffffffffffffffffffffffffffffffffffffffffffffffff1916827bffffffffffffffffffffffffffffffffffffffffffffffffffffffff1916149050919050565b610c6f81610c6a610d52565b610f00565b50565b610c7c828261094a565b610d4e57600180600084815260200190815260200160002060000160008373ffffffffffffffffffffffffffffffffffffffff1673ffffffffffffffffffffffffffffffffffffffff16815260200190815260200160002060006101000a81548160ff021916908315150217905550610cf3610d52565b73ffffffffffffffffffffffffffffffffffffffff168173ffffffffffffffffffffffffffffffffffffffff16837f2f8788117e7eff1d82e926ec794901d17c78024a50270940304540a733656f0d60405160405180910390a45b5050565b600033905090565b610d64828261094a565b15610e385760006001600084815260200190815260200160002060000160008373ffffffffffffffffffffffffffffffffffffffff1673ffffffffffffffffffffffffffffffffffffffff16815260200190815260200160002060006101000a81548160ff021916908315150217905550610ddd610d52565b73ffffffffffffffffffffffffffffffffffffffff168173ffffffffffffffffffffffffffffffffffffffff16837ff6391f5c32d9c69d2a47ea670b442974b53935d1edc7fd64eb21e047a839171b60405160405180910390a45b5050565b610e44610f85565b60008060006101000a81548160ff0219169083151502179055507f5db9ee0a495bf2e6ff9c91a7834c1ba4fdd244a5e8aa4e537bd38aeae4b073aa610e87610d52565b604051610e949190611f81565b60405180910390a1565b610ea6610fce565b60016000806101000a81548160ff0219169083151502179055507f62e78cea01bee320cd4e420270b5ea74000d11b0c9f74754ebdbfc544b05a258610ee9610d52565b604051610ef69190611f81565b60405180910390a1565b610f0a828261094a565b610f8157610f1781611018565b610f258360001c6020611045565b604051602001610f36929190612070565b6040516020818303038152906040526040517f08c379a0000000000000000000000000000000000000000000000000000000008152600401610f7891906120aa565b60405180910390fd5b5050565b610f8d610660565b610fcc576040517f08c379a0000000000000000000000000000000000000000000000000000000008152600401610fc390612118565b60405180910390fd5b565b610fd6610660565b15611016576040517f08c379a000000000000000000000000000000000000000000000000000000000815260040161100d90612184565b60405180910390fd5b565b606061103e8273ffffffffffffffffffffffffffffffffffffffff16601460ff16611045565b9050919050565b60606000600283600261105891906121a4565b61106291906121e6565b67ffffffffffffffff81111561107b5761107a6116c6565b5b6040519080825280601f01601f1916602001820160405280156110ad5781602001600182028036833780820191505090505b5090507f3000000000000000000000000000000000000000000000000000000000000000816000815181106110e5576110e461221a565b5b60200101907effffffffffffffffffffffffffffffffffffffffffffffffffffffffffffff1916908160001a9053507f7800000000000000000000000000000000000000000000000000000000000000816001815181106111495761114861221a565b5b60200101907effffffffffffffffffffffffffffffffffffffffffffffffffffffffffffff1916908160001a9053506000600184600261118991906121a4565b61119391906121e6565b90505b6001811115611233577f3031323334353637383961626364656600000000000000000000000000000000600f8616601081106111d5576111d461221a565b5b1a60f81b8282815181106111ec576111eb61221a565b5b60200101907effffffffffffffffffffffffffffffffffffffffffffffffffffffffffffff1916908160001a905350600485901c94508061122c90612249565b9050611196565b5060008414611277576040517f08c379a000000000000000000000000000000000000000000000000000000000815260040161126e906122be565b60405180910390fd5b8091505092915050565b60405180608001604052806000801916815260200160008152602001600073ffffffffffffffffffffffffffffffffffffffff168152602001606081525090565b6000604051905090565b600080fd5b600080fd5b60007fffffffff0000000000000000000000000000000000000000000000000000000082169050919050565b61130b816112d6565b811461131657600080fd5b50565b60008135905061132881611302565b92915050565b600060208284031215611344576113436112cc565b5b600061135284828501611319565b91505092915050565b60008115159050919050565b6113708161135b565b82525050565b600060208201905061138b6000830184611367565b92915050565b6000819050919050565b6113a481611391565b81146113af57600080fd5b50565b6000813590506113c18161139b565b92915050565b6000602082840312156113dd576113dc6112cc565b5b60006113eb848285016113b2565b91505092915050565b6113fd81611391565b82525050565b6000819050919050565b61141681611403565b82525050565b600073ffffffffffffffffffffffffffffffffffffffff82169050919050565b60006114478261141c565b9050919050565b6114578161143c565b82525050565b600081519050919050565b600082825260208201905092915050565b60005b8381101561149757808201518184015260208101905061147c565b60008484015250505050565b6000601f19601f8301169050919050565b60006114bf8261145d565b6114c98185611468565b93506114d9818560208601611479565b6114e2816114a3565b840191505092915050565b600060808301600083015161150560008601826113f4565b506020830151611518602086018261140d565b50604083015161152b604086018261144e565b506060830151848203606086015261154382826114b4565b9150508091505092915050565b6000602082019050818103600083015261156a81846114ed565b905092915050565b61157b81611391565b82525050565b60006020820190506115966000830184611572565b92915050565b6115a58161143c565b81146115b057600080fd5b50565b6000813590506115c28161159c565b92915050565b600080604083850312156115df576115de6112cc565b5b60006115ed858286016113b2565b92505060206115fe858286016115b3565b9150509250929050565b61161181611403565b82525050565b6116208161143c565b82525050565b600082825260208201905092915050565b60006116428261145d565b61164c8185611626565b935061165c818560208601611479565b611665816114a3565b840191505092915050565b60006080820190506116856000830187611572565b6116926020830186611608565b61169f6040830185611617565b81810360608301526116b18184611637565b905095945050505050565b600080fd5b600080fd5b7f4e487b7100000000000000000000000000000000000000000000000000000000600052604160045260246000fd5b6116fe826114a3565b810181811067ffffffffffffffff8211171561171d5761171c6116c6565b5b80604052505050565b60006117306112c2565b905061173c82826116f5565b919050565b600067ffffffffffffffff82111561175c5761175b6116c6565b5b611765826114a3565b9050602081019050919050565b82818337600083830152505050565b600061179461178f84611741565b611726565b9050828152602081018484840111156117b0576117af6116c1565b5b6117bb848285611772565b509392505050565b600082601f8301126117d8576117d76116bc565b5b81356117e8848260208601611781565b91505092915050565b60008060006060848603121561180a576118096112cc565b5b600084013567ffffffffffffffff811115611828576118276112d1565b5b611834868287016117c3565b935050602084013567ffffffffffffffff811115611855576118546112d1565b5b611861868287016117c3565b925050604084013567ffffffffffffffff811115611882576118816112d1565b5b61188e868287016117c3565b9150509250925092565b60006020820190506118ad6000830184611608565b92915050565b600080fd5b600080fd5b60008083601f8401126118d3576118d26116bc565b5b8235905067ffffffffffffffff8111156118f0576118ef6118b3565b5b60208301915083600182028301111561190c5761190b6118b8565b5b9250929050565b6000806020838503121561192a576119296112cc565b5b600083013567ffffffffffffffff811115611948576119476112d1565b5b611954858286016118bd565b92509250509250929050565b600060208284031215611976576119756112cc565b5b6000611984848285016115b3565b91505092915050565b600060608201905081810360008301526119a78186611637565b905081810360208301526119bb8185611637565b905081810360408301526119cf8184611637565b9050949350505050565b7f4e487b7100000000000000000000000000000000000000000000000000000000600052602260045260246000fd5b60006002820490506001821680611a2057607f821691505b602082108103611a3357611a326119d9565b5b50919050565b7f416363657373436f6e74726f6c3a2063616e206f6e6c792072656e6f756e636560008201527f20726f6c657320666f722073656c660000000000000000000000000000000000602082015250565b6000611a95602f83611626565b9150611aa082611a39565b604082019050919050565b60006020820190508181036000830152611ac481611a88565b9050919050565b60008190508160005260206000209050919050565b60006020601f8301049050919050565b600082821b905092915050565b600060088302611b2d7fffffffffffffffffffffffffffffffffffffffffffffffffffffffffffffffff82611af0565b611b378683611af0565b95508019841693508086168417925050509392505050565b6000819050919050565b6000611b74611b6f611b6a84611403565b611b4f565b611403565b9050919050565b6000819050919050565b611b8e83611b59565b611ba2611b9a82611b7b565b848454611afd565b825550505050565b600090565b611bb7611baa565b611bc2818484611b85565b505050565b5b81811015611be657611bdb600082611baf565b600181019050611bc8565b5050565b601f821115611c2b57611bfc81611acb565b611c0584611ae0565b81016020851015611c14578190505b611c28611c2085611ae0565b830182611bc7565b50505b505050565b600082821c905092915050565b6000611c4e60001984600802611c30565b1980831691505092915050565b6000611c678383611c3d565b9150826002028217905092915050565b611c808261145d565b67ffffffffffffffff811115611c9957611c986116c6565b5b611ca38254611a08565b611cae828285611bea565b600060209050601f831160018114611ce15760008415611ccf578287015190505b611cd98582611c5b565b865550611d41565b601f198416611cef86611acb565b60005b82811015611d1757848901518255600182019150602085019450602081019050611cf2565b86831015611d345784890151611d30601f891682611c3d565b8355505b6001600288020188555050505b505050505050565b60008160601b9050919050565b6000611d6182611d49565b9050919050565b6000611d7382611d56565b9050919050565b611d8b611d868261143c565b611d68565b82525050565b6000819050919050565b611dac611da782611403565b611d91565b82525050565b6000611dbe8285611d7a565b601482019150611dce8284611d9b565b6020820191508190509392505050565b600082905092915050565b611df38383611dde565b67ffffffffffffffff811115611e0c57611e0b6116c6565b5b611e168254611a08565b611e21828285611bea565b6000601f831160018114611e505760008415611e3e578287013590505b611e488582611c5b565b865550611eb0565b601f198416611e5e86611acb565b60005b82811015611e8657848901358255600182019150602085019450602081019050611e61565b86831015611ea35784890135611e9f601f891682611c3d565b8355505b6001600288020188555050505b50505050505050565b6000611ec58385611626565b9350611ed2838584611772565b611edb836114a3565b840190509392505050565b60006020820190508181036000830152611f01818486611eb9565b90509392505050565b7f4e487b7100000000000000000000000000000000000000000000000000000000600052601160045260246000fd5b6000611f4482611403565b91507fffffffffffffffffffffffffffffffffffffffffffffffffffffffffffffffff8203611f7657611f75611f0a565b5b600182019050919050565b6000602082019050611f966000830184611617565b92915050565b600081905092915050565b7f416363657373436f6e74726f6c3a206163636f756e7420000000000000000000600082015250565b6000611fdd601783611f9c565b9150611fe882611fa7565b601782019050919050565b6000611ffe8261145d565b6120088185611f9c565b9350612018818560208601611479565b80840191505092915050565b7f206973206d697373696e6720726f6c6520000000000000000000000000000000600082015250565b600061205a601183611f9c565b915061206582612024565b601182019050919050565b600061207b82611fd0565b91506120878285611ff3565b91506120928261204d565b915061209e8284611ff3565b91508190509392505050565b600060208201905081810360008301526120c48184611637565b905092915050565b7f5061757361626c653a206e6f7420706175736564000000000000000000000000600082015250565b6000612102601483611626565b915061210d826120cc565b602082019050919050565b60006020820190508181036000830152612131816120f5565b9050919050565b7f5061757361626c653a2070617573656400000000000000000000000000000000600082015250565b600061216e601083611626565b915061217982612138565b602082019050919050565b6000602082019050818103600083015261219d81612161565b9050919050565b60006121af82611403565b91506121ba83611403565b92508282026121c881611403565b915082820484148315176121df576121de611f0a565b5b5092915050565b60006121f182611403565b91506121fc83611403565b925082820190508082111561221457612213611f0a565b5b92915050565b7f4e487b7100000000000000000000000000000000000000000000000000000000600052603260045260246000fd5b600061225482611403565b91506000820361226757612266611f0a565b5b600182039050919050565b7f537472696e67733a20686578206c656e67746820696e73756666696369656e74600082015250565b60006122a8602083611626565b91506122b382612272565b602082019050919050565b600060208201905081810360008301526122d78161229b565b905091905056fea26469706673582212208c88e7fde55ffb66b47fa6fbd32b20718c6c101c96a5bea77e37d530905fb47b64736f6c63430008140033",
  "linkReferences": {},
  "deployedLinkReferences": {}
}