{
  "_format": "hh-sol-artifact-1",
  "contractName": "BlogChain",
  "sourceName": "contracts/blogchain.sol",
  "abi": [
    {
      "anonymous": false,
      "inputs": [
        {
          "indexed": false,
          "internalType": "address",
          "name": "author",
          "type": "address"
        },
        {
          "indexed": false,
          "internalType": "string",
          "name": "content",
          "type": "string"
        },
        {
          "indexed": false,
          "internalType": "uint256",
          "name": "timestamp",
          "type": "uint256"
        },
        {
          "indexed": false,
          "internalType": "uint256",
          "name": "id",
          "type": "uint256"
        }
      ],
      "name": "TweetCreated",
      "type": "event"
    },
    {
      "inputs": [],
      "name": "nextTweetId",
      "outputs": [
        {
          "internalType": "uint256",
          "name": "",
          "type": "uint256"
        }
      ],
      "stateMutability": "view",
      "type": "function"
    },
    {
      "inputs": [],
      "name": "readTweets",
      "outputs": [
        {
          "components": [
            {
              "internalType": "address",
              "name": "author",
              "type": "address"
            },
            {
              "internalType": "string",
              "name": "content",
              "type": "string"
            },
            {
              "internalType": "uint256",
              "name": "timestamp",
              "type": "uint256"
            },
            {
              "internalType": "uint256",
              "name": "id",
              "type": "uint256"
            }
          ],
          "internalType": "struct BlogChain.Tweet[]",
          "name": "",
          "type": "tuple[]"
        }
      ],
      "stateMutability": "view",
      "type": "function"
    },
    {
      "inputs": [
        {
          "internalType": "uint256",
          "name": "",
          "type": "uint256"
        }
      ],
      "name": "tweets",
      "outputs": [
        {
          "internalType": "address",
          "name": "author",
          "type": "address"
        },
        {
          "internalType": "string",
          "name": "content",
          "type": "string"
        },
        {
          "internalType": "uint256",
          "name": "timestamp",
          "type": "uint256"
        },
        {
          "internalType": "uint256",
          "name": "id",
          "type": "uint256"
        }
      ],
      "stateMutability": "view",
      "type": "function"
    },
    {
      "inputs": [
        {
          "internalType": "string",
          "name": "_content",
          "type": "string"
        }
      ],
      "name": "writeTweet",
      "outputs": [],
      "stateMutability": "nonpayable",
      "type": "function"
    }
  ],
  "bytecode": "0x608060405234801561001057600080fd5b50610cf6806100206000396000f3fe608060405234801561001057600080fd5b506004361061004c5760003560e01c80638076e02b1461005157806384f3cac01461006f578063e8d857b01461008b578063f3c6a42b146100be575b600080fd5b6100596100dc565b60405161006691906104b6565b60405180910390f35b61008960048036038101906100849190610540565b6100e2565b005b6100a560048036038101906100a091906105b9565b61025a565b6040516100b594939291906106b7565b60405180910390f35b6100c6610342565b6040516100d39190610890565b60405180910390f35b60015481565b600060405180608001604052803373ffffffffffffffffffffffffffffffffffffffff16815260200184848080601f016020809104026020016040519081016040528093929190818152602001838380828437600081840152601f19601f820116905080830192505050505050508152602001428152602001600154815250908060018154018082558091505060019003906000526020600020906004020160009091909190915060008201518160000160006101000a81548173ffffffffffffffffffffffffffffffffffffffff021916908373ffffffffffffffffffffffffffffffffffffffff16021790555060208201518160010190816101e69190610aed565b50604082015181600201556060820151816003015550507fa9046f6362696147f01168579e231a446651190ffd46672b55bd494e66b0c4c133838342600154604051610236959493929190610bfb565b60405180910390a16001600081548092919061025190610c78565b91905055505050565b6000818154811061026a57600080fd5b90600052602060002090600402016000915090508060000160009054906101000a900473ffffffffffffffffffffffffffffffffffffffff16908060010180546102b390610910565b80601f01602080910402602001604051908101604052809291908181526020018280546102df90610910565b801561032c5780601f106103015761010080835404028352916020019161032c565b820191906000526020600020905b81548152906001019060200180831161030f57829003601f168201915b5050505050908060020154908060030154905084565b60606000805480602002602001604051908101604052809291908181526020016000905b8282101561049457838290600052602060002090600402016040518060800160405290816000820160009054906101000a900473ffffffffffffffffffffffffffffffffffffffff1673ffffffffffffffffffffffffffffffffffffffff1673ffffffffffffffffffffffffffffffffffffffff1681526020016001820180546103ef90610910565b80601f016020809104026020016040519081016040528092919081815260200182805461041b90610910565b80156104685780601f1061043d57610100808354040283529160200191610468565b820191906000526020600020905b81548152906001019060200180831161044b57829003601f168201915b505050505081526020016002820154815260200160038201548152505081526020019060010190610366565b50505050905090565b6000819050919050565b6104b08161049d565b82525050565b60006020820190506104cb60008301846104a7565b92915050565b600080fd5b600080fd5b600080fd5b600080fd5b600080fd5b60008083601f840112610500576104ff6104db565b5b8235905067ffffffffffffffff81111561051d5761051c6104e0565b5b602083019150836001820283011115610539576105386104e5565b5b9250929050565b60008060208385031215610557576105566104d1565b5b600083013567ffffffffffffffff811115610575576105746104d6565b5b610581858286016104ea565b92509250509250929050565b6105968161049d565b81146105a157600080fd5b50565b6000813590506105b38161058d565b92915050565b6000602082840312156105cf576105ce6104d1565b5b60006105dd848285016105a4565b91505092915050565b600073ffffffffffffffffffffffffffffffffffffffff82169050919050565b6000610611826105e6565b9050919050565b61062181610606565b82525050565b600081519050919050565b600082825260208201905092915050565b60005b83811015610661578082015181840152602081019050610646565b60008484015250505050565b6000601f19601f8301169050919050565b600061068982610627565b6106938185610632565b93506106a3818560208601610643565b6106ac8161066d565b840191505092915050565b60006080820190506106cc6000830187610618565b81810360208301526106de818661067e565b90506106ed60408301856104a7565b6106fa60608301846104a7565b95945050505050565b600081519050919050565b600082825260208201905092915050565b6000819050602082019050919050565b61073881610606565b82525050565b600082825260208201905092915050565b600061075a82610627565b610764818561073e565b9350610774818560208601610643565b61077d8161066d565b840191505092915050565b6107918161049d565b82525050565b60006080830160008301516107af600086018261072f565b50602083015184820360208601526107c7828261074f565b91505060408301516107dc6040860182610788565b5060608301516107ef6060860182610788565b508091505092915050565b60006108068383610797565b905092915050565b6000602082019050919050565b600061082682610703565b610830818561070e565b9350836020820285016108428561071f565b8060005b8581101561087e578484038952815161085f85826107fa565b945061086a8361080e565b925060208a01995050600181019050610846565b50829750879550505050505092915050565b600060208201905081810360008301526108aa818461081b565b905092915050565b7f4e487b7100000000000000000000000000000000000000000000000000000000600052604160045260246000fd5b7f4e487b7100000000000000000000000000000000000000000000000000000000600052602260045260246000fd5b6000600282049050600182168061092857607f821691505b60208210810361093b5761093a6108e1565b5b50919050565b60008190508160005260206000209050919050565b60006020601f8301049050919050565b600082821b905092915050565b6000600883026109a37fffffffffffffffffffffffffffffffffffffffffffffffffffffffffffffffff82610966565b6109ad8683610966565b95508019841693508086168417925050509392505050565b6000819050919050565b60006109ea6109e56109e08461049d565b6109c5565b61049d565b9050919050565b6000819050919050565b610a04836109cf565b610a18610a10826109f1565b848454610973565b825550505050565b600090565b610a2d610a20565b610a388184846109fb565b505050565b5b81811015610a5c57610a51600082610a25565b600181019050610a3e565b5050565b601f821115610aa157610a7281610941565b610a7b84610956565b81016020851015610a8a578190505b610a9e610a9685610956565b830182610a3d565b50505b505050565b600082821c905092915050565b6000610ac460001984600802610aa6565b1980831691505092915050565b6000610add8383610ab3565b9150826002028217905092915050565b610af682610627565b67ffffffffffffffff811115610b0f57610b0e6108b2565b5b610b198254610910565b610b24828285610a60565b600060209050601f831160018114610b575760008415610b45578287015190505b610b4f8582610ad1565b865550610bb7565b601f198416610b6586610941565b60005b82811015610b8d57848901518255600182019150602085019450602081019050610b68565b86831015610baa5784890151610ba6601f891682610ab3565b8355505b6001600288020188555050505b505050505050565b82818337600083830152505050565b6000610bda8385610632565b9350610be7838584610bbf565b610bf08361066d565b840190509392505050565b6000608082019050610c106000830188610618565b8181036020830152610c23818688610bce565b9050610c3260408301856104a7565b610c3f60608301846104a7565b9695505050505050565b7f4e487b7100000000000000000000000000000000000000000000000000000000600052601160045260246000fd5b6000610c838261049d565b91507fffffffffffffffffffffffffffffffffffffffffffffffffffffffffffffffff8203610cb557610cb4610c49565b5b60018201905091905056fea26469706673582212208e1d8f31cb559d3177efd377a06b8d4836d544960867f07b042f83155759ee1564736f6c63430008130033",
  "linkReferences": {},
  "deployedLinkReferences": {}
}